:030000000208A350
:0C08A300787FE4F6D8FD7581C80208EAF1
:100D8700438902538FFC438F02EFF404F58C858C63
:080D97008A43A80243881022E0
:060B95008B0A8A0B890C9B
:100B9B00E4F50EE50EC3950D501FAB0AAA0BA90C7D
:100BAB00850E827583001209D1FDEF250EF582E4C7
:100BBB003EF583EDF0050E80DAAFA8C2AF75FFAA44
:0D0BCB0075FF554397018FA8E59720E0FBCB
:010BD80022FA
:060CD5008B0A8A0B890C5A
:100CDB00E4FDEDC3950D501AEF2DF582E43EF5833F
:100CEB00E0AB0AAA0BA90C8D82758300120A100DBA
:020CFB0080E097
:010CFD0022D4
:100CFE0043B20843B310538FF34387808F8D8F8B8E
:0D0D0E0043892043884075985043A8102267
:040E67007598402218
:0B0E34008F99E59830E1FB5398FD22F8
:0A0C0E008B088A09890A8C0B8D0CF3
:100C1800E4FEEEC3950CE50B6480F87480985018D8
:100C2800AB08050AE50AAA097002050914F91209B0
:080C3800B8FF120E340E80DA41
:010C40002291
:0E0E2500AEA8C2AF75FFAA75FF558F868EA8C6
:010E3300229C
:0F0E1500AFA8C2AF75FFAA75FF55E4F5868FA889
:010E240022AB
:030E6B0085F81CEB
:010E6E002261
:100D1B00300005C200120E52D20130010E75FFAA2F
:0C0D2B0075FF5575870600000080EF2260
:060E5200E4FF0FBF50FC9D
:010E58002277
:080E4A0043B603D2A0D2A1229D
:100AAB0000010204050708090A0B0C0D161718198B
:100ABB001A1B1C202122232425262728292A2B6FA9
:100ACB00E056816617B1A0C00000306C9118407FD2
:100ADB00FD0008000048DBC0FF80050067165919B0
:100AEB00E01300180048003FC72000038042318507
:0D0AFB00759A0BDECF4401B400FDB0000F72
:10092F00120E3F7F0A7E00120D37D2957F0A7E008E
:10093F00120D37E4F508E4F509F50AE50A900AAB5C
:10094F0093F50BE50A25E024CAF582E4340AF58312
:10095F00E493F50C740193F50D7B007A00790C7517
:10096F001202AF0B120CA47B007A00790C751202E5
:10097F00AF0B120BD9E50A25E024CAF582E4340A3D
:10098F00F583740193650D7004E493650C60037532
:10099F000901050AE50AC3941F40A0E5096009058E
:0809AF0008E508C39403408E23
:0109B700221D
:100D5300EF75F080A4F50D85F00CED420DE4FB7A00
:0B0D630000790C7512027F07020CA43F
:070E59008D127F32020CA490
:070E60008D127FB2020BD9D5
:100DC9007480F50CF50D7B007A00790C7512027FA1
:040DD90034020CA430
:100D9F007866E6FDE4FF120D53120DC97866E6FD85
:050DAF007F01020D535D
:100DDD00751AC3751B807B007A00791A7512027F14
:040DED0023020CA42D
:100E0400C293E4FFFE0FBF00010EBE07F8BFD0F58A
:010E140022BB
:100C73008D0B8B088A09890A1209B8C39430502056
:100C8300E4FF120D53120DC9AB08AA09A90A1209F0
:100C9300B804FD120E59AD0B7F02120D532096FDC1
:010CA300222E
:060CA4008B0F8A1089117C
:100CAA00C293120D6EE4F513E513C395125019ABF6
:100CBA000F0511E511AA107002051014F91209B8EE
:0A0CCA00FF120D6E051380E0D293B7
:010CD40022FD
:060BD9008B0F8A10891148
:100BDF00C293EF4480FF120D6EE4F513E513C39536
:100BEF00125019120DB4AB0F0511E511AA107002B6
:0E0BFF00051014F9EF1209FE051380E0D293E1
:010C0D0022C4
:0B0E3F0043B42E53B4AEC295D29322F0
:100D6E00E4FED292EF30E704D2918002C291C29299
:080D7E00EF25E0FF0EBE08EABC
:010D8600224A
:100DB400E4FED292EF25E0FFC29230900343070194
:040DC4000EBE08EE69
:010DC8002208
:03000B00020B08DD
:090B0800C0E0C0D075D000C000AF
:100B11005388DF7842E6B4010B0806E6D394084017
:100B2100031876020514E514D39403401B751400D1
:100B31000515E515D394F9400F7515000516E51651
:080B4100D39403400375160074
:070B4900D000D0D0D0E03253
:03002300020B507D
:0B0B5000C0E0C0D075D000C000C0079E
:100B5B00E59830E02C5398FEAF997842E670047616
:100B6B000118F67842E6B4011818E6C39420500930
:100B7B00E6062421F8A607800478427602784376AD
:010B8B000069
:090B8C00D007D000D0D0D0E03237
:100DF100D3EF9400EE940040090000EF1F70F11E44
:030E010080EE225E
:100D3700AD07AC06D3ED9400EC9400400E7F5A7ECD
:0C0D470000120DF1ED1D70EC1C80E92283
:030E6F0001170068
:100C410012092F120E4A786776017B007A007966C5
:100C5100750D017F007EF0120CD5786676307FCC61
:100C6100120CFE7FFA120D87D2AF120800120A325F
:020C710080F809
:10080000C2027842E6640260030208A27821E6642C
:10081000CC70530876CC08E6B4C01E7B007A007911
:1008200024750D017F007EF0120CD5782576AA7B09
:10083000007A0079217D0580267823E664C1702640
:1008400008E67866F67B007A007966750D017F0010
:100850007EF0120B957B007A0079217841E6FD7CD1
:1008600000120C0ED20220022F7841E67869F6E4DD
:10087000FF7841E6FEEFC39E500F74212FF8E6FE8D
:10088000746A2FF8A6060F80E87B007A00796978F1
:1008900066E6FD120C73B2A1E47842F67867760141
:0208A000F5174A
:0108A2002233
:100A32007867E664017071E51714601C04706678CB
:100A420066E6FDE4FF120D53120DC97866E6FD7FDE
:100A520001120D537517012220964D7B007A007901
:100A6200187512027F30120BD9E51820E7377B0088
:100A72007A0079997512017F32120BD97899E6FFC3
:100A8200C3943050207B007A00799A8F127F321201
:100A92000BD97B007A00799A7899E6FD7C00120CDA
:090AA2000EB2A08000E4F5172259
:1008AF00020C41E493A3F8E493A34003F68001F212
:1008BF0008DFF48029E493A3F85407240CC8C3334A
:1008CF00C4540F4420C8834004F456800146F6DF19
:1008DF00E4800B0102040810204080900E6FE47E2C
:1008EF00019360BCA3FF543F30E509541FFEE4930E
:1008FF00A360010ECF54C025E060A840B8E493A3D5
:10090F00FAE493A3F8E493A3C8C582C8CAC583CAFF
:10091F00F0A3C8C582C8CAC583CADFE9DEE780BEB7
:010E7200007F
:1009B800BB010689828A83E0225002E722BBFE023D
:0909C800E32289828A83E4932270
:1009D100BB010CE58229F582E5833AF583E02250DB
:1009E10006E92582F8E622BBFE06E92582F8E22225
:0D09F100E58229F582E5833AF583E493223F
:1009FE00BB010689828A83F0225002F722BBFE01D8
:020A0E00F322D1
:100A1000F8BB010DE58229F582E5833AF583E8F01C
:100A2000225006E92582C8F622BBFE05E92582C8C8
:020A3000F222B0
:00000001FF
