BL51 BANKED LINKER/LOCATER V6.22                                                        06/06/2021  21:13:56  PAGE 1


BL51 BANKED LINKER/LOCATER V6.22, INVOKED BY:
C:\KEIL_V5\C51\BIN\BL51.EXE ..\objects\STARTUP.obj, ..\objects\timer.obj, ..\objects\dee.obj, ..\objects\i2c.obj, ..\obj
>> ects\pwm.obj, ..\objects\spi.obj, ..\objects\uart.obj, ..\objects\wdt.obj, ..\objects\rom.obj, ..\objects\adc.obj, ..
>> \objects\tk.obj, ..\objects\misc.obj, ..\objects\kb.obj, ..\objects\led.obj, ..\objects\pl1167.obj, ..\objects\interr
>> upt.obj, ..\objects\delay.obj, ..\objects\prf_uart.obj TO ..\objects\pl51x PRINT (..\listings\pl51x.m51) RAMSIZE (256
>> ) DISABLEWARNING (16)


MEMORY MODEL: SMALL


INPUT MODULES INCLUDED:
  ..\objects\STARTUP.obj (?C_STARTUP)
  ..\objects\timer.obj (TIMER)
  ..\objects\dee.obj (DEE)
  ..\objects\i2c.obj (I2C)
  ..\objects\pwm.obj (PWM)
  ..\objects\spi.obj (SPI)
  ..\objects\uart.obj (UART)
  ..\objects\wdt.obj (WDT)
  ..\objects\rom.obj (ROM)
  ..\objects\adc.obj (ADC)
  ..\objects\tk.obj (TK)
  ..\objects\misc.obj (MISC)
  ..\objects\kb.obj (KB)
  ..\objects\led.obj (LED)
  ..\objects\pl1167.obj (PL1167)
  ..\objects\interrupt.obj (INTERRUPT)
  ..\objects\delay.obj (DELAY)
  ..\objects\prf_uart.obj (PRF_UART)
  C:\KEIL_V5\C51\LIB\C51S.LIB (?C_INIT)
  C:\KEIL_V5\C51\LIB\C51S.LIB (?C?CLDPTR)
  C:\KEIL_V5\C51\LIB\C51S.LIB (?C?CLDOPTR)
  C:\KEIL_V5\C51\LIB\C51S.LIB (?C?CSTPTR)
  C:\KEIL_V5\C51\LIB\C51S.LIB (?C?CSTOPTR)


LINK MAP OF MODULE:  ..\objects\pl51x (?C_STARTUP)


            TYPE    BASE      LENGTH    RELOCATION   SEGMENT NAME
            -----------------------------------------------------

            * * * * * * *   D A T A   M E M O R Y   * * * * * * *
            REG     0000H     0008H     ABSOLUTE     "REG BANK 0"
            DATA    0008H     000CH     UNIT         _DATA_GROUP_
            DATA    0014H     0003H     UNIT         ?DT?INTERRUPT
            DATA    0017H     0003H     UNIT         ?DT?PRF_UART
            DATA    001AH     0002H     UNIT         ?DT?PRFSLEEP?PL1167
            DATA    001CH     0001H     UNIT         ?DT?WDTFED?WDT
                    001DH     0003H                  *** GAP ***
            BIT     0020H.0   0000H.2   UNIT         ?BI?MISC
            BIT     0020H.2   0000H.1   UNIT         _BIT_GROUP_
                    0020H.3   0000H.5                *** GAP ***
            IDATA   0021H     00A8H     UNIT         ?ID?PRF_UART
            IDATA   00C9H     0001H     UNIT         ?STACK

            * * * * * * *   C O D E   M E M O R Y   * * * * * * *
BL51 BANKED LINKER/LOCATER V6.22                                                      06/06/2021  21:13:56  PAGE 2


            CODE    0000H     0003H     ABSOLUTE     
                    0003H     0008H                  *** GAP ***
            CODE    000BH     0003H     ABSOLUTE     
                    000EH     0015H                  *** GAP ***
            CODE    0023H     0003H     ABSOLUTE     
                    0026H     07DAH                  *** GAP ***
            CODE    0800H     00A3H     UNIT         ?PR?UARTPROC?PRF_UART
            CODE    08A3H     008CH     UNIT         ?C_C51STARTUP
            CODE    092FH     0089H     UNIT         ?PR?PRFINIT?PL1167
            CODE    09B8H     007AH     UNIT         ?C?LIB_CODE
            CODE    0A32H     0079H     UNIT         ?PR?PRFPROC?PRF_UART
            CODE    0AABH     005DH     UNIT         ?CO?PL1167
            CODE    0B08H     0048H     UNIT         ?PR?TIMER0_ISR?INTERRUPT
            CODE    0B50H     0045H     UNIT         ?PR?UART_ISR?INTERRUPT
            CODE    0B95H     0044H     UNIT         ?PR?_DEEWR?DEE
            CODE    0BD9H     0035H     UNIT         ?PR?_PRFRDREGPTR?PL1167
            CODE    0C0EH     0033H     UNIT         ?PR?_UARTTXPTR?UART
            CODE    0C41H     0032H     UNIT         ?PR?MAIN?PRF_UART
            CODE    0C73H     0031H     UNIT         ?PR?_PRFTXPTR?PL1167
            CODE    0CA4H     0031H     UNIT         ?PR?_PRFWRREGPTR?PL1167
            CODE    0CD5H     0029H     UNIT         ?PR?_DEERD?DEE
            CODE    0CFEH     001DH     UNIT         ?PR?_UARTINIT?UART
            CODE    0D1BH     001CH     UNIT         ?PR?SLEEP?MISC
            CODE    0D37H     001CH     UNIT         ?PR?_DELAYMS?DELAY
            CODE    0D53H     001BH     UNIT         ?PR?_PRFSETMODECH?PL1167
            CODE    0D6EH     0019H     UNIT         ?PR?_SPIWR8?PL1167
            CODE    0D87H     0018H     UNIT         ?PR?_TIMER0INIT?TIMER
            CODE    0D9FH     0015H     UNIT         ?PR?PRFSETRX?PL1167
            CODE    0DB4H     0015H     UNIT         ?PR?SPIRD8?PL1167
            CODE    0DC9H     0014H     UNIT         ?PR?PRFCLRTXRXPTR?PL1167
            CODE    0DDDH     0014H     UNIT         ?PR?PRFSLEEP?PL1167
            CODE    0DF1H     0013H     UNIT         ?PR?_DELAYUS?DELAY
            CODE    0E04H     0011H     UNIT         ?PR?PRFWAKEUP?PL1167
            CODE    0E15H     0010H     UNIT         ?PR?WDTDIS?WDT
            CODE    0E25H     000FH     UNIT         ?PR?_WDTINIT?WDT
            CODE    0E34H     000BH     UNIT         ?PR?_UARTTXDAT?UART
            CODE    0E3FH     000BH     UNIT         ?PR?PRFPORTINIT?PL1167
            CODE    0E4AH     0008H     UNIT         ?PR?LEDINIT?LED
            CODE    0E52H     0007H     UNIT         ?PR?SLEEPDLY?MISC
            CODE    0E59H     0007H     UNIT         ?PR?_PRFWRFIFO?PL1167
            CODE    0E60H     0007H     UNIT         ?PR?_PRFRDFIFO?PL1167
            CODE    0E67H     0004H     UNIT         ?PR?UARTDIS?UART
            CODE    0E6BH     0004H     UNIT         ?PR?WDTFED?WDT
            CODE    0E6FH     0004H     UNIT         ?C_INITSEG



OVERLAY MAP OF MODULE:   ..\objects\pl51x (?C_STARTUP)


SEGMENT                             BIT_GROUP          DATA_GROUP 
  +--> CALLED SEGMENT            START    LENGTH     START    LENGTH
--------------------------------------------------------------------
?C_C51STARTUP                    -----    -----      -----    -----
  +--> ?PR?MAIN?PRF_UART
  +--> ?C_INITSEG

BL51 BANKED LINKER/LOCATER V6.22                                                      06/06/2021  21:13:56  PAGE 3


?PR?MAIN?PRF_UART                -----    -----      -----    -----
  +--> ?PR?PRFINIT?PL1167
  +--> ?PR?LEDINIT?LED
  +--> ?PR?_DEERD?DEE
  +--> ?PR?_UARTINIT?UART
  +--> ?PR?_TIMER0INIT?TIMER
  +--> ?PR?UARTPROC?PRF_UART
  +--> ?PR?PRFPROC?PRF_UART

?PR?PRFINIT?PL1167               -----    -----      0008H    0006H
  +--> ?PR?PRFPORTINIT?PL1167
  +--> ?PR?_DELAYMS?DELAY
  +--> ?CO?PL1167
  +--> ?PR?_PRFWRREGPTR?PL1167
  +--> ?PR?_PRFRDREGPTR?PL1167

?PR?_DELAYMS?DELAY               -----    -----      -----    -----
  +--> ?PR?_DELAYUS?DELAY

?PR?_PRFWRREGPTR?PL1167          -----    -----      000EH    0006H
  +--> ?PR?_SPIWR8?PL1167

?PR?_PRFRDREGPTR?PL1167          -----    -----      000EH    0006H
  +--> ?PR?_SPIWR8?PL1167
  +--> ?PR?SPIRD8?PL1167

?PR?_DEERD?DEE                   -----    -----      0008H    0006H

?PR?UARTPROC?PRF_UART            0020H.2  0000H.1    -----    -----
  +--> ?PR?_DEERD?DEE
  +--> ?PR?_DEEWR?DEE
  +--> ?PR?_UARTTXPTR?UART
  +--> ?PR?_PRFTXPTR?PL1167

?PR?_DEEWR?DEE                   -----    -----      0008H    0007H

?PR?_UARTTXPTR?UART              -----    -----      0008H    0005H
  +--> ?PR?_UARTTXDAT?UART

?PR?_PRFTXPTR?PL1167             -----    -----      0008H    0004H
  +--> ?PR?_PRFSETMODECH?PL1167
  +--> ?PR?PRFCLRTXRXPTR?PL1167
  +--> ?PR?_PRFWRFIFO?PL1167

?PR?_PRFSETMODECH?PL1167         -----    -----      000CH    0002H
  +--> ?PR?_PRFWRREGPTR?PL1167

?PR?PRFCLRTXRXPTR?PL1167         -----    -----      000CH    0002H
  +--> ?PR?_PRFWRREGPTR?PL1167

?PR?_PRFWRFIFO?PL1167            -----    -----      -----    -----
  +--> ?PR?_PRFWRREGPTR?PL1167

?PR?PRFPROC?PRF_UART             -----    -----      -----    -----
  +--> ?PR?_PRFSETMODECH?PL1167
  +--> ?PR?PRFCLRTXRXPTR?PL1167
  +--> ?PR?_PRFRDREGPTR?PL1167
BL51 BANKED LINKER/LOCATER V6.22                                                      06/06/2021  21:13:56  PAGE 4


  +--> ?PR?_UARTTXPTR?UART



SYMBOL TABLE OF MODULE:  ..\objects\pl51x (?C_STARTUP)

  VALUE           TYPE          NAME
  ----------------------------------

  -------         MODULE        ?C_STARTUP
  C:08A3H         SEGMENT       ?C_C51STARTUP
  I:00C9H         SEGMENT       ?STACK
  C:0000H         PUBLIC        ?C_STARTUP
  D:00E0H         SYMBOL        ACC
  D:00F0H         SYMBOL        B
  D:0083H         SYMBOL        DPH
  D:0082H         SYMBOL        DPL
  N:0000H         SYMBOL        IBPSTACK
  N:0100H         SYMBOL        IBPSTACKTOP
  N:0080H         SYMBOL        IDATALEN
  C:08A6H         SYMBOL        IDATALOOP
  N:0000H         SYMBOL        PBPSTACK
  N:0100H         SYMBOL        PBPSTACKTOP
  N:0000H         SYMBOL        PDATALEN
  N:0000H         SYMBOL        PDATASTART
  N:0000H         SYMBOL        PPAGE
  N:0000H         SYMBOL        PPAGEENABLE
  D:00A0H         SYMBOL        PPAGE_SFR
  D:0081H         SYMBOL        SP
  C:08A3H         SYMBOL        STARTUP1
  N:0000H         SYMBOL        XBPSTACK
  N:0000H         SYMBOL        XBPSTACKTOP
  N:0000H         SYMBOL        XDATALEN
  N:0000H         SYMBOL        XDATASTART
  C:0000H         LINE#         126
  C:08A3H         LINE#         133
  C:08A5H         LINE#         134
  C:08A6H         LINE#         135
  C:08A7H         LINE#         136
  C:08A9H         LINE#         185
  C:08ACH         LINE#         196
  -------         ENDMOD        ?C_STARTUP

  -------         MODULE        TIMER
  C:0000H         SYMBOL        _ICE_DUMMY_
  D:0080H         PUBLIC        P0
  D:0090H         PUBLIC        P1
  D:00A0H         PUBLIC        P2
  D:0089H         PUBLIC        TMOD
  D:0088H         PUBLIC        TCON
  D:00A8H         PUBLIC        IE0
  D:008FH         PUBLIC        TCKCON
  C:0D87H         PUBLIC        _Timer0Init
  D:008CH         PUBLIC        TH0
  D:008AH         PUBLIC        TL0
  -------         PROC          _TIMER0INIT
  D:0007H         SYMBOL        cnt
BL51 BANKED LINKER/LOCATER V6.22                                                      06/06/2021  21:13:56  PAGE 5


  C:0D87H         LINE#         5
  C:0D87H         LINE#         6
  C:0D87H         LINE#         7
  C:0D8AH         LINE#         8
  C:0D8DH         LINE#         9
  C:0D90H         LINE#         10
  C:0D95H         LINE#         11
  C:0D98H         LINE#         13
  C:0D9BH         LINE#         15
  C:0D9EH         LINE#         16
  -------         ENDPROC       _TIMER0INIT
  -------         ENDMOD        TIMER

  -------         MODULE        DEE
  C:0000H         SYMBOL        _ICE_DUMMY_
  D:0080H         PUBLIC        P0
  D:0090H         PUBLIC        P1
  D:00A0H         PUBLIC        P2
  B:00A8H.7       PUBLIC        EA
  D:00FFH         PUBLIC        TA
  D:00A8H         PUBLIC        IE0
  C:0CD5H         PUBLIC        _DeeRd
  C:0B95H         PUBLIC        _DeeWr
  D:0097H         PUBLIC        EECON
  -------         PROC          _DEEWR
  D:0006H         SYMBOL        addr
  D:000AH         SYMBOL        dat
  D:000DH         SYMBOL        len
  -------         DO            
  D:0006H         SYMBOL        ptr
  D:000EH         SYMBOL        i
  D:0007H         SYMBOL        tmp
  -------         ENDDO         
  C:0B95H         LINE#         5
  C:0B9BH         LINE#         6
  C:0B9BH         LINE#         11
  C:0B9BH         LINE#         12
  C:0BA5H         LINE#         13
  C:0BA5H         LINE#         14
  C:0BC0H         LINE#         15
  C:0BC4H         LINE#         16
  C:0BC6H         LINE#         17
  C:0BC8H         LINE#         18
  C:0BCBH         LINE#         19
  C:0BCEH         LINE#         20
  C:0BD1H         LINE#         21
  C:0BD3H         LINE#         22
  C:0BD8H         LINE#         23
  -------         ENDPROC       _DEEWR
  -------         PROC          _DEERD
  D:0006H         SYMBOL        addr
  D:000AH         SYMBOL        dat
  D:000DH         SYMBOL        len
  -------         DO            
  D:0006H         SYMBOL        ptr
  D:0005H         SYMBOL        i
  -------         ENDDO         
BL51 BANKED LINKER/LOCATER V6.22                                                      06/06/2021  21:13:56  PAGE 6


  C:0CD5H         LINE#         25
  C:0CDBH         LINE#         26
  C:0CDBH         LINE#         30
  C:0CDBH         LINE#         31
  C:0CE3H         LINE#         32
  C:0CE3H         LINE#         33
  C:0CFAH         LINE#         34
  C:0CFDH         LINE#         35
  -------         ENDPROC       _DEERD
  -------         ENDMOD        DEE

  -------         MODULE        I2C
  C:0000H         SYMBOL        _ICE_DUMMY_
  D:0080H         PUBLIC        P0
  D:0090H         PUBLIC        P1
  D:00A0H         PUBLIC        P2
  -------         ENDMOD        I2C

  -------         MODULE        PWM
  C:0000H         SYMBOL        _ICE_DUMMY_
  D:0080H         PUBLIC        P0
  D:0090H         PUBLIC        P1
  D:00A0H         PUBLIC        P2
  -------         ENDMOD        PWM

  -------         MODULE        SPI
  C:0000H         SYMBOL        _ICE_DUMMY_
  D:0080H         PUBLIC        P0
  D:0090H         PUBLIC        P1
  D:00A0H         PUBLIC        P2
  -------         ENDMOD        SPI

  -------         MODULE        UART
  C:0000H         SYMBOL        _ICE_DUMMY_
  D:00B3H         PUBLIC        P0M1
  D:0080H         PUBLIC        P0
  D:0090H         PUBLIC        P1
  D:00A0H         PUBLIC        P2
  C:0E34H         PUBLIC        _UartTxDat
  C:0C0EH         PUBLIC        _UartTxPtr
  D:0099H         PUBLIC        SBUF
  D:0087H         PUBLIC        PCON
  D:0098H         PUBLIC        SCON
  C:0CFEH         PUBLIC        _UartInit
  D:0089H         PUBLIC        TMOD
  D:0088H         PUBLIC        TCON
  D:00A8H         PUBLIC        IE0
  C:0E67H         PUBLIC        UartDis
  D:008FH         PUBLIC        TCKCON
  D:008DH         PUBLIC        TH1
  D:008BH         PUBLIC        TL1
  D:00B2H         PUBLIC        P0M0
  -------         PROC          _UARTINIT
  D:0007H         SYMBOL        brt
  C:0CFEH         LINE#         10
  C:0CFEH         LINE#         11
  C:0CFEH         LINE#         13
BL51 BANKED LINKER/LOCATER V6.22                                                      06/06/2021  21:13:56  PAGE 7


  C:0D01H         LINE#         14
  C:0D04H         LINE#         21
  C:0D07H         LINE#         22
  C:0D0AH         LINE#         23
  C:0D0CH         LINE#         24
  C:0D0EH         LINE#         25
  C:0D11H         LINE#         26
  C:0D14H         LINE#         27
  C:0D17H         LINE#         29
  C:0D1AH         LINE#         31
  -------         ENDPROC       _UARTINIT
  -------         PROC          UARTDIS
  C:0E67H         LINE#         33
  C:0E67H         LINE#         34
  C:0E67H         LINE#         35
  C:0E6AH         LINE#         36
  -------         ENDPROC       UARTDIS
  -------         PROC          _UARTTXDAT
  D:0007H         SYMBOL        dat
  C:0E34H         LINE#         38
  C:0E34H         LINE#         39
  C:0E34H         LINE#         40
  C:0E36H         LINE#         41
  C:0E3BH         LINE#         42
  C:0E3EH         LINE#         43
  -------         ENDPROC       _UARTTXDAT
  -------         PROC          _UARTTXPTR
  D:0008H         SYMBOL        ptr
  D:000BH         SYMBOL        len
  -------         DO            
  D:0006H         SYMBOL        i
  -------         ENDDO         
  C:0C0EH         LINE#         45
  C:0C18H         LINE#         46
  C:0C18H         LINE#         49
  C:0C28H         LINE#         50
  C:0C28H         LINE#         51
  C:0C3DH         LINE#         52
  C:0C40H         LINE#         53
  -------         ENDPROC       _UARTTXPTR
  -------         ENDMOD        UART

  -------         MODULE        WDT
  C:0000H         SYMBOL        _ICE_DUMMY_
  D:0080H         PUBLIC        P0
  D:0090H         PUBLIC        P1
  D:00A0H         PUBLIC        P2
  B:00A8H.7       PUBLIC        EA
  D:00FFH         PUBLIC        TA
  D:00A8H         PUBLIC        IE0
  C:0E6BH         PUBLIC        WdtFed
  C:0E25H         PUBLIC        _WdtInit
  D:0086H         PUBLIC        WDTCON
  C:0E15H         PUBLIC        WdtDis
  D:00F8H         PUBLIC        RSTCON
  -------         PROC          _WDTINIT
  D:0007H         SYMBOL        tm
BL51 BANKED LINKER/LOCATER V6.22                                                      06/06/2021  21:13:56  PAGE 8


  -------         DO            
  D:0006H         SYMBOL        tmp
  -------         ENDDO         
  C:0E25H         LINE#         5
  C:0E25H         LINE#         6
  C:0E25H         LINE#         9
  C:0E27H         LINE#         10
  C:0E29H         LINE#         11
  C:0E2CH         LINE#         12
  C:0E2FH         LINE#         13
  C:0E31H         LINE#         14
  C:0E33H         LINE#         15
  -------         ENDPROC       _WDTINIT
  -------         PROC          WDTDIS
  -------         DO            
  D:0007H         SYMBOL        tmp
  -------         ENDDO         
  C:0E15H         LINE#         17
  C:0E15H         LINE#         18
  C:0E15H         LINE#         21
  C:0E17H         LINE#         22
  C:0E19H         LINE#         23
  C:0E1CH         LINE#         24
  C:0E1FH         LINE#         25
  C:0E22H         LINE#         26
  C:0E24H         LINE#         27
  -------         ENDPROC       WDTDIS
  -------         PROC          WDTFED
  -------         DO            
  D:001CH         SYMBOL        tmp
  -------         ENDDO         
  C:0E6BH         LINE#         29
  C:0E6BH         LINE#         30
  C:0E6BH         LINE#         32
  C:0E6EH         LINE#         33
  -------         ENDPROC       WDTFED
  -------         ENDMOD        WDT

  -------         MODULE        ROM
  C:0000H         SYMBOL        _ICE_DUMMY_
  D:0080H         PUBLIC        P0
  D:0090H         PUBLIC        P1
  D:00A0H         PUBLIC        P2
  -------         ENDMOD        ROM

  -------         MODULE        ADC
  C:0000H         SYMBOL        _ICE_DUMMY_
  D:0080H         PUBLIC        P0
  D:0090H         PUBLIC        P1
  D:00A0H         PUBLIC        P2
  -------         ENDMOD        ADC

  -------         MODULE        TK
  C:0000H         SYMBOL        _ICE_DUMMY_
  D:0080H         PUBLIC        P0
  D:0090H         PUBLIC        P1
  D:00A0H         PUBLIC        P2
BL51 BANKED LINKER/LOCATER V6.22                                                      06/06/2021  21:13:56  PAGE 9


  -------         ENDMOD        TK

  -------         MODULE        MISC
  C:0000H         SYMBOL        _ICE_DUMMY_
  D:0080H         PUBLIC        P0
  D:0090H         PUBLIC        P1
  D:00A0H         PUBLIC        P2
  D:00FFH         PUBLIC        TA
  B:0020H.0       PUBLIC        SleepDlyFlag
  C:0E52H         PUBLIC        SleepDly
  D:0087H         PUBLIC        PCON
  B:0020H.1       PUBLIC        SleepFlag
  C:0D1BH         PUBLIC        Sleep
  -------         PROC          SLEEP
  C:0D1BH         LINE#         9
  C:0D1BH         LINE#         10
  C:0D1BH         LINE#         11
  C:0D1EH         LINE#         12
  C:0D1EH         LINE#         13
  C:0D20H         LINE#         14
  C:0D23H         LINE#         15
  C:0D23H         LINE#         16
  C:0D25H         LINE#         17
  C:0D28H         LINE#         18
  C:0D28H         LINE#         19
  C:0D2BH         LINE#         20
  C:0D2EH         LINE#         21
  C:0D31H         LINE#         22
  C:0D32H         LINE#         23
  C:0D33H         LINE#         24
  C:0D34H         LINE#         25
  C:0D36H         LINE#         26
  -------         ENDPROC       SLEEP
  -------         PROC          SLEEPDLY
  -------         DO            
  D:0007H         SYMBOL        i
  -------         ENDDO         
  C:0E52H         LINE#         28
  C:0E52H         LINE#         29
  C:0E52H         LINE#         31
  C:0E58H         LINE#         32
  -------         ENDPROC       SLEEPDLY
  -------         ENDMOD        MISC

  -------         MODULE        KB
  C:0000H         SYMBOL        _ICE_DUMMY_
  D:0080H         PUBLIC        P0
  D:0090H         PUBLIC        P1
  D:00A0H         PUBLIC        P2
  -------         ENDMOD        KB

  -------         MODULE        LED
  C:0000H         SYMBOL        _ICE_DUMMY_
  D:00B6H         PUBLIC        P2M0
  D:0080H         PUBLIC        P0
  D:0090H         PUBLIC        P1
  D:00A0H         PUBLIC        P2
BL51 BANKED LINKER/LOCATER V6.22                                                      06/06/2021  21:13:56  PAGE 10


  B:00A0H.0       PUBLIC        LED0
  B:00A0H.1       PUBLIC        LED1
  C:0E4AH         PUBLIC        LedInit
  -------         PROC          LEDINIT
  C:0E4AH         LINE#         5
  C:0E4AH         LINE#         6
  C:0E4AH         LINE#         7
  C:0E4DH         LINE#         8
  C:0E4FH         LINE#         9
  C:0E51H         LINE#         10
  -------         ENDPROC       LEDINIT
  -------         ENDMOD        LED

  -------         MODULE        PL1167
  C:0000H         SYMBOL        _ICE_DUMMY_
  D:00B4H         PUBLIC        P1M0
  D:0080H         PUBLIC        P0
  D:0090H         PUBLIC        P1
  D:00A0H         PUBLIC        P2
  B:0090H.1       PUBLIC        PRF_MOSI
  B:0090H.0       PUBLIC        PRF_MISO
  B:0090H.5       PUBLIC        PRF_RSTB
  C:0D53H         PUBLIC        _PrfSetModeCh
  C:0E04H         PUBLIC        PrfWakeup
  C:0DB4H         PUBLIC        SpiRd8
  C:0DC9H         PUBLIC        PrfClrTxRxPtr
  C:0D9FH         PUBLIC        PrfSetRx
  C:0DDDH         PUBLIC        PrfSleep
  B:0090H.2       PUBLIC        PRF_SCK
  C:0C73H         PUBLIC        _PrfTxPtr
  C:0D6EH         PUBLIC        _SpiWr8
  C:0BD9H         PUBLIC        _PrfRdRegPtr
  B:0090H.6       PUBLIC        PRF_PKT
  C:092FH         PUBLIC        PrfInit
  C:0CA4H         PUBLIC        _PrfWrRegPtr
  C:0AABH         PUBLIC        PrfRegAddrTab
  C:0ACAH         PUBLIC        PrfRegTab
  C:0E60H         PUBLIC        _PrfRdFifo
  C:0E3FH         PUBLIC        PrfPortInit
  B:0090H.3       PUBLIC        PRF_SCSB
  C:0E59H         PUBLIC        _PrfWrFifo
  -------         PROC          PRFINIT
  -------         DO            
  D:0008H         SYMBOL        reinit
  D:0009H         SYMBOL        err
  D:000AH         SYMBOL        i
  D:000BH         SYMBOL        reg
  D:000CH         SYMBOL        regval
  -------         ENDDO         
  C:092FH         LINE#         49
  C:092FH         LINE#         50
  C:092FH         LINE#         57
  C:0932H         LINE#         58
  C:0939H         LINE#         59
  C:093BH         LINE#         60
  C:0942H         LINE#         62
  C:0945H         LINE#         63
BL51 BANKED LINKER/LOCATER V6.22                                                      06/06/2021  21:13:56  PAGE 11


  C:0945H         LINE#         64
  C:0948H         LINE#         65
  C:094AH         LINE#         66
  C:094AH         LINE#         67
  C:0952H         LINE#         68
  C:0968H         LINE#         69
  C:0976H         LINE#         70
  C:0984H         LINE#         71
  C:099EH         LINE#         72
  C:09A1H         LINE#         73
  C:09AAH         LINE#         74
  C:09AEH         LINE#         75
  C:09AEH         LINE#         76
  C:09B7H         LINE#         77
  -------         ENDPROC       PRFINIT
  -------         PROC          _PRFSETMODECH
  D:0007H         SYMBOL        mode
  D:0005H         SYMBOL        ch
  -------         DO            
  D:000CH         SYMBOL        regval
  -------         ENDDO         
  C:0D53H         LINE#         79
  C:0D53H         LINE#         80
  C:0D53H         LINE#         83
  C:0D5DH         LINE#         84
  C:0D61H         LINE#         85
  -------         ENDPROC       _PRFSETMODECH
  -------         PROC          _PRFWRFIFO
  D:0001H         SYMBOL        ptr
  D:0005H         SYMBOL        len
  C:0E59H         LINE#         88
  C:0E59H         LINE#         89
  C:0E59H         LINE#         90
  -------         ENDPROC       _PRFWRFIFO
  -------         PROC          _PRFRDFIFO
  D:0001H         SYMBOL        ptr
  D:0005H         SYMBOL        len
  C:0E60H         LINE#         93
  C:0E60H         LINE#         94
  C:0E60H         LINE#         95
  -------         ENDPROC       _PRFRDFIFO
  -------         PROC          PRFCLRTXRXPTR
  -------         DO            
  D:000CH         SYMBOL        regval
  -------         ENDDO         
  C:0DC9H         LINE#         98
  C:0DC9H         LINE#         99
  C:0DC9H         LINE#         102
  C:0DCFH         LINE#         103
  -------         ENDPROC       PRFCLRTXRXPTR
  -------         PROC          PRFSETRX
  C:0D9FH         LINE#         106
  C:0D9FH         LINE#         107
  C:0D9FH         LINE#         108
  C:0DA8H         LINE#         109
  C:0DABH         LINE#         110
  -------         ENDPROC       PRFSETRX
BL51 BANKED LINKER/LOCATER V6.22                                                      06/06/2021  21:13:56  PAGE 12


  -------         PROC          PRFSLEEP
  -------         DO            
  D:001AH         SYMBOL        regval
  -------         ENDDO         
  C:0DDDH         LINE#         113
  C:0DDDH         LINE#         114
  C:0DDDH         LINE#         117
  C:0DE3H         LINE#         118
  -------         ENDPROC       PRFSLEEP
  -------         PROC          PRFWAKEUP
  -------         DO            
  D:0006H         SYMBOL        i
  -------         ENDDO         
  C:0E04H         LINE#         121
  C:0E04H         LINE#         122
  C:0E04H         LINE#         125
  C:0E06H         LINE#         126
  C:0E14H         LINE#         127
  -------         ENDPROC       PRFWAKEUP
  -------         PROC          _PRFTXPTR
  D:0008H         SYMBOL        ptr
  D:000BH         SYMBOL        ch
  C:0C73H         LINE#         129
  C:0C7BH         LINE#         130
  C:0C7BH         LINE#         133
  C:0C83H         LINE#         134
  C:0C83H         LINE#         135
  C:0C88H         LINE#         136
  C:0C8BH         LINE#         137
  C:0C99H         LINE#         138
  C:0CA0H         LINE#         140
  C:0CA3H         LINE#         141
  C:0CA3H         LINE#         145
  C:0CA3H         LINE#         147
  C:0CA3H         LINE#         148
  -------         ENDPROC       _PRFTXPTR
  -------         PROC          _PRFWRREGPTR
  D:0007H         SYMBOL        reg
  D:000FH         SYMBOL        ptr
  D:0012H         SYMBOL        len
  -------         DO            
  D:0013H         SYMBOL        i
  -------         ENDDO         
  C:0CA4H         LINE#         150
  C:0CAAH         LINE#         151
  C:0CAAH         LINE#         154
  C:0CACH         LINE#         155
  C:0CAFH         LINE#         156
  C:0CB9H         LINE#         157
  C:0CB9H         LINE#         158
  C:0CCEH         LINE#         159
  C:0CD2H         LINE#         160
  C:0CD4H         LINE#         161
  -------         ENDPROC       _PRFWRREGPTR
  -------         PROC          _PRFRDREGPTR
  D:0007H         SYMBOL        reg
  D:000FH         SYMBOL        ptr
BL51 BANKED LINKER/LOCATER V6.22                                                      06/06/2021  21:13:56  PAGE 13


  D:0012H         SYMBOL        len
  -------         DO            
  D:0013H         SYMBOL        i
  -------         ENDDO         
  C:0BD9H         LINE#         163
  C:0BDFH         LINE#         164
  C:0BDFH         LINE#         167
  C:0BE1H         LINE#         168
  C:0BE8H         LINE#         169
  C:0BF2H         LINE#         170
  C:0BF2H         LINE#         171
  C:0C07H         LINE#         172
  C:0C0BH         LINE#         173
  C:0C0DH         LINE#         174
  -------         ENDPROC       _PRFRDREGPTR
  -------         PROC          PRFPORTINIT
  C:0E3FH         LINE#         176
  C:0E3FH         LINE#         177
  C:0E3FH         LINE#         178
  C:0E42H         LINE#         179
  C:0E45H         LINE#         181
  C:0E47H         LINE#         182
  C:0E49H         LINE#         183
  -------         ENDPROC       PRFPORTINIT
  -------         PROC          _SPIWR8
  D:0007H         SYMBOL        dat
  -------         DO            
  D:0006H         SYMBOL        i
  -------         ENDDO         
  C:0D6EH         LINE#         185
  C:0D6EH         LINE#         186
  C:0D6EH         LINE#         189
  C:0D70H         LINE#         190
  C:0D70H         LINE#         191
  C:0D72H         LINE#         192
  C:0D76H         LINE#         193
  C:0D7AH         LINE#         195
  C:0D7CH         LINE#         197
  C:0D7EH         LINE#         199
  C:0D82H         LINE#         200
  C:0D86H         LINE#         201
  -------         ENDPROC       _SPIWR8
  -------         PROC          SPIRD8
  -------         DO            
  D:0007H         SYMBOL        dat
  D:0006H         SYMBOL        i
  -------         ENDDO         
  C:0DB4H         LINE#         203
  C:0DB4H         LINE#         204
  C:0DB4H         LINE#         208
  C:0DB6H         LINE#         209
  C:0DB6H         LINE#         210
  C:0DB8H         LINE#         211
  C:0DBCH         LINE#         213
  C:0DBEH         LINE#         215
  C:0DC1H         LINE#         216
  C:0DC4H         LINE#         217
BL51 BANKED LINKER/LOCATER V6.22                                                      06/06/2021  21:13:56  PAGE 14


  C:0DC8H         LINE#         218
  C:0DC8H         LINE#         219
  -------         ENDPROC       SPIRD8
  -------         ENDMOD        PL1167

  -------         MODULE        INTERRUPT
  C:0000H         SYMBOL        _ICE_DUMMY_
  D:0080H         PUBLIC        P0
  D:0090H         PUBLIC        P1
  D:00A0H         PUBLIC        P2
  C:0B08H         PUBLIC        TIMER0_ISR
  C:0B50H         PUBLIC        UART_ISR
  D:0099H         PUBLIC        SBUF
  D:0098H         PUBLIC        SCON
  D:0088H         PUBLIC        TCON
  -------         PROC          TIMER0_ISR
  -------         DO            
  D:0014H         SYMBOL        t_1ms_cnt
  D:0015H         SYMBOL        t_250ms_cnt
  D:0016H         SYMBOL        t_1s_cnt
  -------         ENDDO         
  C:0B08H         LINE#         14
  C:0B11H         LINE#         52
  C:0B14H         LINE#         54
  C:0B1AH         LINE#         55
  C:0B1AH         LINE#         56
  C:0B1CH         LINE#         57
  C:0B22H         LINE#         58
  C:0B22H         LINE#         59
  C:0B25H         LINE#         60
  C:0B25H         LINE#         61
  C:0B25H         LINE#         62
  C:0B27H         LINE#         63
  C:0B2EH         LINE#         64
  C:0B2EH         LINE#         65
  C:0B31H         LINE#         67
  C:0B33H         LINE#         68
  C:0B3AH         LINE#         69
  C:0B3AH         LINE#         70
  C:0B3DH         LINE#         72
  C:0B3FH         LINE#         73
  C:0B46H         LINE#         74
  C:0B46H         LINE#         75
  C:0B49H         LINE#         77
  C:0B49H         LINE#         78
  C:0B49H         LINE#         79
  C:0B49H         LINE#         81
  -------         ENDPROC       TIMER0_ISR
  -------         PROC          UART_ISR
  -------         DO            
  D:0007H         SYMBOL        tmp
  -------         ENDDO         
  C:0B50H         LINE#         110
  C:0B5BH         LINE#         115
  C:0B60H         LINE#         116
  C:0B60H         LINE#         117
  C:0B63H         LINE#         118
BL51 BANKED LINKER/LOCATER V6.22                                                      06/06/2021  21:13:56  PAGE 15


  C:0B65H         LINE#         119
  C:0B6AH         LINE#         120
  C:0B6AH         LINE#         121
  C:0B6CH         LINE#         122
  C:0B6EH         LINE#         123
  C:0B6EH         LINE#         124
  C:0B74H         LINE#         125
  C:0B74H         LINE#         126
  C:0B7BH         LINE#         127
  C:0B7BH         LINE#         128
  C:0B82H         LINE#         129
  C:0B84H         LINE#         131
  C:0B84H         LINE#         132
  C:0B88H         LINE#         133
  C:0B88H         LINE#         134
  C:0B8CH         LINE#         135
  C:0B8CH         LINE#         136
  C:0B8CH         LINE#         138
  -------         ENDPROC       UART_ISR
  -------         ENDMOD        INTERRUPT

  -------         MODULE        DELAY
  C:0000H         SYMBOL        _ICE_DUMMY_
  D:0080H         PUBLIC        P0
  D:0090H         PUBLIC        P1
  D:00A0H         PUBLIC        P2
  C:0D37H         PUBLIC        _DelayMs
  C:0DF1H         PUBLIC        _DelayUs
  -------         PROC          _DELAYUS
  D:0006H         SYMBOL        tm
  C:0DF1H         LINE#         7
  C:0DF1H         LINE#         8
  C:0DF1H         LINE#         9
  C:0DFAH         LINE#         10
  C:0DFAH         LINE#         11
  C:0DFCH         LINE#         12
  C:0E03H         LINE#         13
  -------         ENDPROC       _DELAYUS
  -------         PROC          _DELAYMS
  D:0004H         SYMBOL        tm
  C:0D37H         LINE#         15
  C:0D3BH         LINE#         16
  C:0D3BH         LINE#         17
  C:0D44H         LINE#         18
  C:0D52H         LINE#         19
  -------         ENDPROC       _DELAYMS
  -------         ENDMOD        DELAY

  -------         MODULE        PRF_UART
  C:0000H         SYMBOL        _ICE_DUMMY_
  D:0080H         PUBLIC        P0
  D:0090H         PUBLIC        P1
  D:00A0H         PUBLIC        P2
  B:00A0H.0       PUBLIC        LED0
  B:00A8H.7       PUBLIC        EA
  B:00A0H.1       PUBLIC        LED1
  I:0021H         PUBLIC        Uart
BL51 BANKED LINKER/LOCATER V6.22                                                      06/06/2021  21:13:56  PAGE 16


  D:0017H         PUBLIC        PrfRxSta
  C:0C41H         PUBLIC        main
  I:0065H         PUBLIC        Prf
  C:0800H         PUBLIC        UartProc
  B:0090H.6       PUBLIC        PRF_PKT
  C:0A32H         PUBLIC        PrfProc
  D:0018H         PUBLIC        PrfRegVal
  -------         PROC          MAIN
  C:0C41H         LINE#         10
  C:0C41H         LINE#         11
  C:0C41H         LINE#         12
  C:0C44H         LINE#         13
  C:0C47H         LINE#         14
  C:0C4BH         LINE#         15
  C:0C5BH         LINE#         18
  C:0C5FH         LINE#         19
  C:0C64H         LINE#         20
  C:0C69H         LINE#         21
  C:0C6BH         LINE#         22
  C:0C6BH         LINE#         23
  C:0C6BH         LINE#         24
  C:0C6EH         LINE#         25
  C:0C71H         LINE#         26
  -------         ENDPROC       MAIN
  -------         PROC          UARTPROC
  -------         DO            
  D:0007H         SYMBOL        i
  B:0020H.2       SYMBOL        cmd_flag
  -------         ENDDO         
  C:0800H         LINE#         30
  C:0800H         LINE#         31
  C:0800H         LINE#         33
  C:0802H         LINE#         35
  C:080CH         LINE#         36
  C:080CH         LINE#         37
  C:0816H         LINE#         38
  C:0816H         LINE#         39
  C:081BH         LINE#         40
  C:081BH         LINE#         41
  C:082BH         LINE#         42
  C:082FH         LINE#         43
  C:0837H         LINE#         44
  C:0837H         LINE#         45
  C:0839H         LINE#         46
  C:0840H         LINE#         47
  C:0840H         LINE#         48
  C:0845H         LINE#         49
  C:0855H         LINE#         50
  C:0864H         LINE#         51
  C:0866H         LINE#         52
  C:0866H         LINE#         53
  C:0866H         LINE#         55
  C:0869H         LINE#         56
  C:0869H         LINE#         57
  C:086FH         LINE#         58
  C:087AH         LINE#         59
  C:087AH         LINE#         60
BL51 BANKED LINKER/LOCATER V6.22                                                      06/06/2021  21:13:56  PAGE 17


  C:0886H         LINE#         61
  C:0889H         LINE#         62
  C:0896H         LINE#         63
  C:0898H         LINE#         64
  C:0898H         LINE#         65
  C:089CH         LINE#         66
  C:08A0H         LINE#         67
  C:08A2H         LINE#         68
  C:08A2H         LINE#         69
  -------         ENDPROC       UARTPROC
  -------         PROC          PRFPROC
  C:0A32H         LINE#         71
  C:0A32H         LINE#         72
  C:0A32H         LINE#         73
  C:0A39H         LINE#         74
  C:0A39H         LINE#         75
  C:0A41H         LINE#         76
  C:0A41H         LINE#         77
  C:0A41H         LINE#         78
  C:0A4AH         LINE#         79
  C:0A4DH         LINE#         80
  C:0A56H         LINE#         81
  C:0A59H         LINE#         82
  C:0A5AH         LINE#         83
  C:0A5AH         LINE#         84
  C:0A5DH         LINE#         85
  C:0A5DH         LINE#         86
  C:0A6BH         LINE#         87
  C:0A70H         LINE#         88
  C:0A70H         LINE#         89
  C:0A7EH         LINE#         90
  C:0A87H         LINE#         91
  C:0A87H         LINE#         92
  C:0A94H         LINE#         93
  C:0AA3H         LINE#         94
  C:0AA5H         LINE#         95
  C:0AA5H         LINE#         96
  C:0AA5H         LINE#         97
  C:0AA5H         LINE#         98
  C:0AA5H         LINE#         99
  C:0AA7H         LINE#         100
  C:0AA7H         LINE#         101
  C:0AAAH         LINE#         102
  C:0AAAH         LINE#         103
  C:0AAAH         LINE#         104
  C:0AAAH         LINE#         105
  -------         ENDPROC       PRFPROC
  -------         ENDMOD        PRF_UART

  -------         MODULE        ?C?CLDPTR
  C:09B8H         PUBLIC        ?C?CLDPTR
  -------         ENDMOD        ?C?CLDPTR

  -------         MODULE        ?C?CLDOPTR
  C:09D1H         PUBLIC        ?C?CLDOPTR
  -------         ENDMOD        ?C?CLDOPTR

BL51 BANKED LINKER/LOCATER V6.22                                                      06/06/2021  21:13:56  PAGE 18


  -------         MODULE        ?C?CSTPTR
  C:09FEH         PUBLIC        ?C?CSTPTR
  -------         ENDMOD        ?C?CSTPTR

  -------         MODULE        ?C?CSTOPTR
  C:0A10H         PUBLIC        ?C?CSTOPTR
  -------         ENDMOD        ?C?CSTOPTR

******************************************************************************
* RESTRICTED VERSION WITH 0800H BYTE CODE SIZE LIMIT; USED: 0581H BYTE (68%) *
******************************************************************************

Program Size: data=198.3 xdata=0 code=1660
LINK/LOCATE RUN COMPLETE.  0 WARNING(S),  0 ERROR(S)
