C51 COMPILER V9.56.0.0   WDT                                                               06/06/2021 21:13:53 PAGE 1   


C51 COMPILER V9.56.0.0, COMPILATION OF MODULE WDT
OBJECT MODULE PLACED IN ..\objects\wdt.obj
COMPILER INVOKED BY: C:\Keil_v5\C51\BIN\C51.EXE ..\code\libaray\src\wdt.c OPTIMIZE(8,SPEED) BROWSE INCDIR(..\code\startu
                    -p\inc;..\code\driver\inc;..\code\libaray\inc;..\code\user\inc;..\code\app\inc) DEBUG OBJECTEXTEND PRINT(..\listings\wdt.
                    -lst) TABS(2) OBJECT(..\objects\wdt.obj)

line level    source

   1          #include "includes.h"
   2          
   3          
   4          #ifdef USE_WDT
   5          void WdtInit(uint8_t tm)
   6          {
   7   1        uint8_t tmp;
   8   1        
   9   1        tmp = IE0;
  10   1        EA = 0;
  11   1        TA = 0xAA;
  12   1        TA = 0x55;
  13   1        WDTCON = tm;
  14   1        IE0 = tmp;
  15   1      }
  16          
  17          void WdtDis(void)
  18          {
  19   1        uint8_t tmp;
  20   1        
  21   1        tmp = IE0;
  22   1        EA = 0;
  23   1        TA = 0xAA;
  24   1        TA = 0x55;
  25   1        WDTCON = 0x00;
  26   1        IE0 = tmp;
  27   1      }
  28          
  29          void WdtFed(void)
  30          {
  31   1        uint8_t tmp;
  32   1        tmp = RSTCON;
  33   1      }
  34          
  35          #endif  //USE_WDT
  36          
  37          
  38          
  39          
  40          
  41          
  42          
  43          
  44          
  45          
  46          
  47          
  48          
  49          
  50          
  51          
  52          
  53          
C51 COMPILER V9.56.0.0   WDT                                                               06/06/2021 21:13:53 PAGE 2   

  54          


MODULE INFORMATION:   STATIC OVERLAYABLE
   CODE SIZE        =     35    ----
   CONSTANT SIZE    =   ----    ----
   XDATA SIZE       =   ----    ----
   PDATA SIZE       =   ----    ----
   DATA SIZE        =   ----       1
   IDATA SIZE       =   ----    ----
   BIT SIZE         =   ----    ----
END OF MODULE INFORMATION.


C51 COMPILATION COMPLETE.  0 WARNING(S),  0 ERROR(S)
